:020000040800F2
:10000000A0100020111F0008351F0008391F00082C
:100010003D1F0008411F0008451F000800000000A8
:10002000000000000000000000000000491F000860
:100030004D1F000800000000511F00089514000823
:10004000551F0008591F00085D1F0008611F0008A8
:10005000651F0008691F00086D1F0008711F000858
:10006000751F0008791F00087D1F0008811F000808
:10007000851F0008891F00088D1F0008911F0008B8
:10008000951F0008991F00089D1F0008A11F000868
:10009000A51F0008A91F0008AD1F0008B11F000818
:1000A000B51F0008B91F0008BD1F0008C11F0008C8
:1000B000B7180008C3120008C51F0008C91F0008B0
:1000C000CD1F0008D11F0008D51F0008D91F000848
:1000D000DD1F0008E11F0008E51F0008E91F0008F8
:1000E000ED1F0008F11F0008F51F000800000000C8
:1000F0000000000000000000000000000000000000
:100100000000000000000000F91F0008FD1F0008AB
:100110005F070008012000080520000809200008EA
:100120000D200008112000081520000819200008E3
:100130001D20000821200008252000082920000893
:100140002D20000831200008352000083920000843
:1001500010B40200002000230C00611EA4B2002C89
:1001600013D0147890EA0420521C082423009BB278
:10017000002BF1D0040405D5400080F4805090F0AD
:10018000210000E040005B1EF1E780B210BC704728
:100190002DE9F84F05000E0093461F000A9C5FF002
:1001A00000085FF000092878012802D180208046ED
:1001B0001EE02878022803D14FF48060804617E0C3
:1001C0002878042801D1002045E02878032801D1AF
:1001D000002040E02878182807D16878182801D135
:1001E000002038E07FF0050035E05FF0FF3032E0BE
:1001F0006878E4B2A04202D07FF001002BE0A8783A
:10020000E143C9B2884202D07FF0020023E018F136
:100210000500864202D07FF003001CE0414689B20F
:10022000E81CFFF795FF8146701910F8020C711950
:1002300011F8011C51EA0020484502D07FF004006B
:1002400009E015F1030A42465146584600F06CF9A0
:10025000C7F800800120BDE8F28F31B50C00150011
:10026000012100A800F044FA0128F9D19DF800000E
:10027000062802D1002028600BE09DF80000152818
:1002800007D12868401C28602868062801DB042064
:10029000207031BD2DE9F84304000D0016001F0049
:1002A0005FF000085FF000099A480078002809D044
:1002B000022800F0998020D3042800F01281C0F0B9
:1002C000A18023E100209449086000209349086040
:1002D00000209349087001208E4908709148C06839
:1002E000002808D400208F49C860002801D10120CF
:1002F00002E0002000E0002008E18A48C068B0F574
:100300007A7F08DB00208749C860002801D10120DE
:1003100002E0002000E00020002808D07F4A7D494C
:100320004320FFF79AFF00207A490870EEE0286822
:10033000002800F0EB8078480068C0B200903B00D5
:10034000320029682000FFF723FF81460020286043
:100350004FFA89F9B9F1000F17D0B9F1010F2CD17B
:10036000F078002803D104206A4908700CE00220CC
:10037000684908700220804667480068401C66494A
:1003800008600020664908701FE065480078002872
:1003900008D0002060490860604A5E490620FFF7E7
:1003A0005CFF04E05D4A5B491520FFF756FF5C489F
:1003B0000078401C5A49087007E00020584908702E
:1003C000564A54491520FFF748FF5648C068002890
:1003D00008D400205349C860002801D1012002E060
:1003E000002000E0002091E003204A4908704B4AB9
:1003F00048490620FFF731FF484A46494320FFF7A6
:100400002CFF83E04748C068B0F57A7F08DB002006
:100410004449C860002801D1012002E0002000E02A
:100420000020002803D004203A4908706EE02868B4
:1004300000286BD038480068C0B200903B00320002
:1004400029682000FFF7A4FE8146002028604FFAAB
:1004500089F9B9F1000F12D0B9F1010F2AD10120A9
:1004600080462D480068401C2B49086000202C491C
:1004700008702A4A27490620FFF7EFFE22E02848A5
:10048000007800280BD00020234908600120214972
:100490000870224A1F490620FFF7DFFE04E01F4ACA
:1004A0001C491520FFF7D9FE1D480078401C1C4947
:1004B000087007E000201A490870184A15491520ED
:1004C000FFF7CBFE1748C068002808D40020154964
:1004D000C860002801D1012002E0002000E00020D7
:1004E00014E00E4A0B490620FFF7B7FE0B4A0949F4
:1004F0001820FFF7B2FE094A06491820FFF7ADFEA3
:100500005FF0FF3080460020024908704046BDE899
:10051000F28300009A080020900800209408002030
:100520009B0800206008002062B38B0708D0521E91
:1005300011F8013B00F8013B00F024808B07F6D155
:10054000830740F0208000BF103A07D330B4B1E8F1
:100550003810103AA0E83810F9D230BC530724BF45
:10056000B1E80810A0E8081044BF51F8043B40F877
:10057000043BD20724BF31F8022B20F8022B44BFE2
:100580000B7803707047083A07D3B1E80810083AAF
:1005900040F8043B40F804CBF7D25307E4E710B42B
:1005A00050F8041B81B102681218001D50F8043B7A
:1005B000DC0744BFA9F10104E31852F8044B43F8E7
:1005C000044B091FF9D1EBE710BC704700B587B0A9
:1005D00034208DF8040001208DF8050001208DF8ED
:1005E000060001208DF8070001A800F026F901217E
:1005F000102000F03BFA01215FF4002000F045FAE2
:100600004FF48060ADF8000018208DF8030003203F
:100610008DF8020000A9814800F07AFA4FF40060DA
:10062000ADF8000004208DF8030003208DF80200CF
:1006300000A97A4800F06CFA5FF4E13002900020E3
:10064000ADF80C000020ADF80E000020ADF8100051
:100650000020ADF814000C20ADF8120002A970487B
:1006600000F008FB012240F225516D4800F082FBAA
:10067000012240F227716A4800F07CFB01216848A2
:1006800000F06AFB40F22661654800F0E3FB402180
:10069000634800F0A2FB07B000BD80B56148007858
:1006A0000128FBD100215E4800F056FB002240F2F9
:1006B00027715B4800F05EFB002240F2255158484C
:1006C00000F058FB002240F22661554800F052FB32
:1006D00040F22771524800F0BDFB40F226615048BD
:1006E00000F0B8FB40F225514D4800F0B3FB01BDCE
:1006F0002DE9F04106000C000025317889B2484808
:1007000000F063FB761C002046490870A4B2601E0E
:100710004549096808600020434909688880A4B2F7
:10072000671E4148006810F106083A003100404653
:10073000FFF7FAFE00200500A4B2601E85420BD22E
:10074000394800682818807938490880344800887A
:100750004006FBD56D1CEFE70120BDE8F08110B528
:1007600040F227712E4800F03EFB012828D140F2CC
:1007700027712B4800F06EFB2B48006800680028AA
:1007800017D0294800688088411C274A1268918048
:100790002549096880B24018817989B2204800F063
:1007A00014FB214800680068401E1F490968086062
:1007B00032E0002240F22771194800F0DBFA2BE00A
:1007C0000821174800F00FFB002811D00821144819
:1007D00000F040FB002240F22661114800F0CAFA06
:1007E000002011490968086001200E49087013E0D3
:1007F00040F225510A4800F0F6FA00280CD040F2E9
:100800002551074800F026FB054800F0E2FA0400F5
:10081000E4B2200000F03FFB10BD000000100140DA
:10082000004C00401C00002010000020044C004040
:100830001F4901431F4A1160704770B40023002113
:100840000F22C478002C20D01A4C246814F4E064E1
:10085000D4F5E064240A2300D3F104042100DA4033
:1008600044788C4023008478144023431B01124CAD
:1008700005782B550124057815F01F05AC400F4D68
:100880000678761145F8264009E00124057815F030
:100890001F05AC400A4D0678761145F8264070BC1D
:1008A0007047084A0A400243074B1A60704700002D
:1008B0000000FA050CED00E000E400E000E100E0DB
:1008C00080E100E080FFFF1F08ED00E0F0B50021AF
:1008D0000022002300240025002600275FF0000CE2
:1008E000DFF800E2DEF800E01EF00C0E71468E46E6
:1008F000BEF1000F06D0BEF1040F08D0BEF1080F04
:100900000AD062E0DFF8E4E1C0F800E061E0DFF87F
:10091000E0E1C0F800E05CE0DFF8C8E1DEF800E00C
:100920001EF4701E7246DFF8BCE1DEF800E01EF433
:10093000803E7346920C0D2A01D0921C02E05FF0BB
:10094000060E7246002B06D1DFF8A8E10EFB02FE70
:10095000C0F800E038E0DFF890E1DEF800E01EF4D7
:10096000803E7546DFF880E1DEF800E01EF00F0EF5
:100970001EF1010E7646002D08D1DFF874E1BEFBB2
:10098000F6FE02FB0EFEC0F800E01DE0DFF858E1C5
:10099000DEF800E0CEF3031E1EF1010E7746DFF80D
:1009A00048E1DEF800E0CEF3032E1EF1020EF4461D
:1009B000DFF83CE1BEFBF7FE0CFB0EFEBEFBF6FED5
:1009C00002FB0EFEC0F800E003E0DFF820E1C0F813
:1009D00000E0DFF810E1DEF800E01EF0F00E7146F6
:1009E0000909DFF814E111F80EE07446D0F800E0D0
:1009F0003EFA04FEC0F804E0DFF8E8E0DEF800E0CC
:100A00001EF4E06E7146090ADFF8ECE011F80EE022
:100A10007446D0F804E03EFA04FEC0F808E0DFF8BF
:100A2000C4E0DEF800E01EF4605E7146C90ADFF83B
:100A3000C8E011F80EE07446D0F804E03EFA04FE77
:100A4000C0F80CE0DFF89CE0DEF800E01EF4404E59
:100A50007146890BDFF8A4E011F80EE07446D0F877
:100A60000CE0BEFBF4FEC0F810E0F0BDC9B20029F6
:100A700005D0234A12680243214B1A6004E0204A41
:100A8000126882431E4B1A607047C9B2002905D014
:100A90001C4A126802431B4B1A6004E0194A126890
:100AA0008243184B1A607047C9B2002905D0164A14
:100AB00012680243144B1A6004E0134A126882431E
:100AC000114B1A607047C9B2002905D00F4A12684D
:100AD00002430E4B1A6004E00C4A126882430B4B2F
:100AE0001A607047041002402C10024000127A0075
:100AF00040787D0100093D00000000201800002022
:100B0000181002401C1002400C100240101002404D
:100B1000F0B500270022002300240025002691F8CC
:100B200003C01CF00F0C674691F803C05FEACC6C61
:100B300003D591F802C05CEA070791F800C05FEAAC
:100B40000C6C3AD0D0F800C065465FF0000C6346EC
:100B5000082B31D25FF0010C1CFA03FC6446B1F89B
:100B600000C014EA0C0C6246A24223D15FEA830C57
:100B700064465FF00F0C1CFA04FC6646B54317FA96
:100B800004FC5CEA050591F803C0BCF1280F06D10E
:100B90005FF0010C1CFA03FCC0F814C00AE091F8E5
:100BA00003C0BCF1480F05D15FF0010C1CFA03FC37
:100BB000C0F810C05B1CCBE70560B1F800C0BCF109
:100BC000FF0F3FDDD0F804C065465FF0000C6346C0
:100BD000082B36D25FF0010C13F1080E1CFA0EFC44
:100BE0006446B1F800C014EA0C0C6246A24226D159
:100BF0005FEA830C64465FF00F0C1CFA04FC664647
:100C0000B54317FA04FC5CEA050591F803C0BCF192
:100C1000280F07D15FF0010C13F1080E1CFA0EFC2F
:100C2000C0F814C091F803C0BCF1480F07D15FF0C1
:100C3000010C13F1080E1CFA0EFCC0F810C05B1C6E
:100C4000C6E74560F0BD89B20161704789B2416174
:100C5000704750F8041B61B150F8042BD30744BF10
:100C6000A9F101039A18002342F8043B091FFAD1A5
:100C7000EFE770472DE9F04786B004000D0000262D
:100C800000275FF000085FF000095FF0000AA88904
:100C90000028A246208A06004CF6FF700640E8882D
:100CA00006432682A08906004EF6F3100640A88867
:100CB00029890843698908430643A681A08A06005A
:100CC0004FF6FF400640A8890643A68200A8FFF71A
:100CD000FDFD2048824502D10398070001E00298FB
:100CE0000700A089000408D5192000FB07F0296837
:100CF0004900B0FBF1F0804607E0192000FB07F047
:100D000029688900B0FBF1F080466420B8FBF0F060
:100D1000000106003009642101FB10808146A08992
:100D2000000409D55FEAC90032306421B0FBF1F05C
:100D300010F00700064308E05FEA09103230642132
:100D4000B0FBF1F010F00F000643268106B0BDE8BD
:100D5000F087000000380140C9B2002904D0828920
:100D600052F40052828104E082894DF6FF731A40EA
:100D700082817047F0B4002300240025002689B248
:100D800040F66A17B94206000F00FFB27F09FFB2B2
:100D90003B0089B211F01F073C000127A7403D002E
:100DA000012B01D10C3604E0022B01D1103600E0FA
:100DB0001436D2B2002A03D037682F43376002E0DE
:100DC0003768AF433760F0BC7047CA05D20D8280E8
:100DD00070478088C005C00D704789B28A0589B206
:100DE000CA430280704770B402000023002500242B
:100DF000002089B240F66A16B1420E00F6B27609BA
:100E0000F6B2340089B211F01F063500012616FA39
:100E100005F5012C02D19689354006E0022C02D15D
:100E2000168A354001E0968A354089B20E0AB6B27C
:100E30003300012616FA03F316883340002D04D040
:100E4000002B02D00126300001E000263000C0B2A5
:100E500070BC704710B40022002389B240F66A14B7
:100E6000A14289B20C0A22000124944023009BB2C3
:100E7000DC43048010BC704738B504000025200016
:100E800000F098F90500290089B22000FFF730FC36
:100E90000128F8D131BD10B50400A5488088B0F50F
:100EA000836F0EDAA248006800280AD1A048808823
:100EB000411C9F4A91809E4980B24018847100F085
:100EC000CFF910BD80B5002000F0D9F9984880888E
:100ED0009749086000209649888001BD80B59548F3
:100EE000FFF7CAFF9448006894490840B0F1005FDA
:100EF00015D19348FFF7C0FF00F032FA72B672B610
:100F000090480068904908608F4800688F490860E1
:100F10008D480068006880478C480068804701BDA4
:100F200070B504000D0016002868002826D020782F
:100F3000432802D0207863281ED1854800780028F5
:100F400004D183480078401C8149087080480078AB
:100F5000002811D07F480068C82808DB00207D49A0
:100F60000860002801D1012002E0002000E00020FC
:100F7000002801D0012030700020286000206C493A
:100F800088807448406841F28831884208DB00203C
:100F900070494860002801D1012002E0002000E0F3
:100FA0000020002805D0FFF799FF6B48FFF764FF8A
:100FB000FEE770BD70B504000D001600012028602A
:100FC0006649200000F068FA6549200000F086FAC2
:100FD0006449200000F082FA6349200000F07EFAA4
:100FE0006249200000F07AFA022030702000FFF7FA
:100FF00043FF0020286070BD70B504000D0016008E
:10100000286800281FD02078312802D0322812D03A
:1010100017E04948564908605648574908605748FC
:1010200057490860574858490860032030705748AE
:10103000FFF722FF05E0002030705548FFF71CFF46
:10104000FFE70020286070BD70B5ADF5816D04002C
:101050000D00160001A840F2044100F04DFA0020F6
:10106000009000AB01AA29002000FFF713F9012826
:101070000DD0022803D0B0F1FF3F1BD02FE03E4837
:101080000068002802D03C480068804727E03C48C0
:101090000068002807D0009A92B23548016801A87C
:1010A000374B1B6898473248006800990818304948
:1010B000086014E034480068002802D03248006814
:1010C000804700202C49086000202D49086000203E
:1010D0002D490860002030702E48FFF7CDFE0DF539
:1010E000816D70BD704780B52B480078002805D011
:1010F00002280BD006D303280CD00FE0274828493C
:1011000008600EE02748264908600AE0264824497E
:10111000086006E025482249086002E000201E49D8
:1011200008701D4A024922481D4B1B68984701BDA3
:1011300040040020D01E0008002000080000FE2F00
:10114000E01E000804200008880800207408002021
:101150009908002060080020941E0008701D0008F7
:101160007C1E0008A81E0008B01D00082C1F0008E7
:1011700014000020A91C000878080020531C000857
:1011800080080020111D00087C080020BC1E0008FB
:10119000F01E0008001F000898080020210F00081A
:1011A00084080020B50F0008F90F00084910000856
:1011B0004604002000F10103810704D010F8011B50
:1011C00089B18107FAD10268B2F10131914311F07E
:1011D000803F04BF50F8042FF6E710F8011B11B14F
:1011E00010F8011BFBE7C01A704700001FB5AA24C6
:1011F00001210220FFF749FC394800F081F9002065
:10120000ADF806000020ADF80A00601EADF8080039
:101210000020ADF8040001A9314800F061FA1D205A
:101220008DF8000006208DF8010000208DF80200E6
:1012300001208DF8030000A8FFF7FFFA00212848DD
:1012400000F0B1FA00220121254800F0A1FA0121A5
:10125000234800F0C3FA0021214800F08BFA1FBD9B
:1012600080B500211E4800F09EFA01211C4800F0C4
:1012700081FA012201211A4800F08AFA01BD10B555
:1012800082B00400012C0ED11D208DF80000062034
:101290008DF8010000208DF8020000208DF8030079
:1012A00000A8FFF7CAFA00210D4800F063FA0021F8
:1012B0000B4800F078FA00220121094800F068FA92
:1012C00013BD80B50121064800F06FFA012805D151
:1012D0000121034800F082FAFFF7F4FD01BD000090
:1012E0000004004080B501217C20FFF7BFFB4FF6D2
:1012F000FF706149088000205F49C8705E495F48FF
:10130000FFF706FC5C495E48FFF702FC5A495D485E
:10131000FFF7FEFB58495C48FFF7FAFB56495B486C
:10132000FFF7F6FB00217C20FFF7A0FB01BD80B595
:1013300000215FF00060FFF7B4FA4FF44070FFF750
:1013400077FA01BD80B5FFF7F2FFFFF7CBFF00F0A2
:1013500010F800F067FAFFF749FFFFF737F901BD12
:1013600080B500F09BFA0120FFF789FFFFF795F9A0
:1013700001BD80B501218420FFF778FB4FF40060A8
:10138000ADF8000010208DF8030002208DF8020057
:1013900000A93A48FFF7BCFB4FF47070ADF80000AD
:1013A00010208DF8030002208DF8020000A93848B3
:1013B000FFF7AEFB01BD10B50400002C08D0022CD5
:1013C00012D00BD3042C19D013D3052C1CD021E040
:1013D0004FF400612948FFF736FC1BE04FF4006131
:1013E0002648FFF730FC15E040212948FFF72BFC89
:1013F00010E080212648FFF726FC0BE04FF48071B7
:101400002348FFF720FC05E04FF400712048FFF768
:101410001AFCFFE710BD10B50400002C08D0022C08
:1014200011D00BD3042C18D012D3052C1BD020E0E4
:101430004FF400611148FFF709FC1AE002210F4840
:10144000FFF704FC15E040211148FFF7FFFB10E017
:1014500080210F48FFF7FAFB0BE04FF480710C4836
:10146000FFF7F4FB05E04FF400710948FFF7EEFBCE
:10147000FFE710BD000000007008002000080140D8
:10148000000C014000100140001401400018014010
:10149000001C0140704700005FEA000C830706D083
:1014A00011F8013B00F8013BB3B18307F8D10A689A
:1014B000B2F1013323EA020313F0803F02BF40F888
:1014C000042B51F8042FF3E711F8013B00F8013B1E
:1014D00013B111F8013BF9E760467047024600E09E
:1014E000521C1378002BFBD111F8013B137012F83A
:1014F000013B002BF8D17047002200F0FDB900003D
:1015000010B50400DFF8DC0284420AD101214FF457
:101510000060FFF7C9FA00214FF40060FFF7C4FA3A
:10152000DDE0B4F1804F08D101210120FFF7CBFAB3
:1015300000210120FFF7C7FAD1E0DFF8AC028442B6
:1015400008D101210220FFF7BEFA00210220FFF797
:10155000BAFAC4E0DFF89402844208D101210420E1
:10156000FFF7B1FA00210420FFF7ADFAB7E0DFF88A
:101570008002844208D101210820FFF7A4FA00214B
:101580000820FFF7A0FAAAE0DFF86802844208D139
:1015900001211020FFF797FA00211020FFF793FA9E
:1015A0009DE0DFF85402844208D101212020FFF79A
:1015B0008AFA00212020FFF786FA90E0DFF83C024B
:1015C00084420AD101214FF40050FFF76DFA002147
:1015D0004FF40050FFF768FA81E0DFF824028442FC
:1015E0000AD101215FF40020FFF75EFA00215FF4C9
:1015F0000020FFF759FA72E0DFF8080284420AD1AE
:1016000001215FF48010FFF74FFA00215FF4801092
:10161000FFF74AFA63E0DFF8F00184420AD10121C2
:101620005FF40010FFF740FA00215FF40010FFF7AD
:101630003BFA54E0DFF8D401844208D10121402074
:10164000FFF741FA00214020FFF73DFA47E0DFF8BD
:10165000C001844208D101218020FFF734FA002123
:101660008020FFF730FA3AE0DFF8A80184420AD17F
:1016700001214FF48070FFF726FA00214FF48070AB
:10168000FFF721FA2BE0DFF8900184420AD1012113
:101690005FF48030FFF708FA00215FF48030FFF735
:1016A00003FA1CE0DFF8740184420AD101215FF4DF
:1016B0000030FFF7F9F900215FF40030FFF7F4F98B
:1016C0000DE0DFF85C01844209D101215FF4802044
:1016D000FFF7EAF900215FF48020FFF7E5F910BD7C
:1016E000002203881A00DFF8FC30984212D0DFF89D
:1016F0000C3198420ED0B0F1804F0BD0DFF8E830BB
:10170000984207D0DFF8E430984203D0DFF8E030A9
:10171000984204D14FF68F731A404B881A43DFF872
:10172000D430984208D0DFF8D030984204D04FF639
:10173000FF431A40CB881A4302808B8883850B882D
:101740000385DFF8A03098420FD0DFF8B030984220
:101750000BD0DFF8C430984207D0DFF8C030984291
:1017600003D0DFF8BC30984201D10B7A0386012305
:1017700083827047C9B2002904D0028852F0010266
:10178000028004E002884FF6FE731A400280704720
:10179000D2B2002A03D083890B43838102E083897C
:1017A0008B43838170478184704730B402000020EE
:1017B00000230024158A0D402B0095890D402C0034
:1017C0009BB2002B05D0A4B2002C02D0012528002A
:1017D00001E000252800C0B230BC704789B2CA437E
:1017E00002827047002C01400004004000080040C5
:1017F000000C004000100040001400400034014084
:10180000004C0140005001400054014000180040CD
:10181000001C004000200040004001400044014006
:10182000004801401FB54FF47A7401210120FFF7F1
:101830002CF95FF08040FFF763FE0020ADF8060052
:101840000020ADF80A00601EADF808004720ADF892
:10185000040001A95FF08040FFF742FF1C208DF8D3
:1018600000000A208DF8010000208DF80200012000
:101870008DF8030000A8FEF7E0FF00215FF0804034
:10188000FFF791FF012201215FF08040FFF780FF09
:1018900001215FF08040FFF76DFF1FBD80B5002282
:1018A00001215FF08040FFF773FF00215FF080406F
:1018B000FFF760FF01BD10B5002401215FF08040FB
:1018C000FFF773FF012814D101215FF08040FFF77B
:1018D00085FF00200400A4B2042C0ADA0548A4B253
:1018E00050F82400401C0349A4B241F82400641CB1
:1018F000F1E710BD6008002000B500BF1300964658
:101900009446103928BFA0E80C50FAD85FEA417C11
:1019100028BF0CC048BF40F8042BC90728BF20F8D7
:10192000022B48BF00F8012B00BD000080B56148C4
:10193000006850F001005F4908605F4800685F4937
:1019400008405D4908605B4800685D4908405949A6
:1019500008605848006830F48020564908605648AE
:10196000006830F4FE00544908605248006830F0C6
:10197000A050504908605FF47F0052490860002081
:10198000514908605FF41F004E49086000F005F8F7
:101990005FF000604D49086001BD80B500F001F8BE
:1019A00001BD82B0002001900020009041480068F5
:1019B00050F480303F4908603E48006810F4003021
:1019C00000900198401C01900098002803D10198D4
:1019D000B0F5A06FF0D137480068800302D5012030
:1019E000009001E000200090009801285FD1384865
:1019F000006850F010003649086035480068C0089B
:101A0000C000334908603248006850F00200304995
:101A10000860294800682849086027480068264966
:101A200008602548006850F4806023490860264813
:101A3000006828490840244908602348006840F4A9
:101A4000833050F04400204908601A48006850F084
:101A5000806018490860174800680001FBD51648E7
:101A6000006830F47C10144908601348006850F492
:101A7000E810114908600F48006850F080700D4967
:101A800008600C4800688001FBD50B48006880089E
:101A90008000094908600848006850F002000649C3
:101AA00008600548006810F00C000828F9D102B061
:101AB0007047000000100240041002400000FFF0D8
:101AC000FFFFF6FE081002402C10024008ED00E077
:101AD0000020024000F0FEFFDFF80801DFF80811E7
:101AE0000860DFF80801DFF8001108607047DFF8D0
:101AF0000001006850F08000DFF8F41008607047C3
:101B000038B5040004255FF4D81000F077F805001C
:101B1000EDB2042D20D1DFF8D800006850F00200AB
:101B2000DFF8CC100860DFF8CC000460DFF8C000FC
:101B3000006850F04000DFF8B81008605FF4D8107B
:101B400000F05CF80500DFF8A800006841F6FD71C0
:101B50000840DFF89C1008602800C0B232BD70B5A4
:101B600004000D0004264FF4005000F047F8060072
:101B7000F6B2042E16D1DFF87800006850F00100AC
:101B8000DFF86C10086025804FF4005000F036F844
:101B90000600DFF85C00006841F6FE710840DFF8DF
:101BA000501008603000C0B270BD13490860704723
:101BB000042011490968C90702D5012108000FE076
:101BC0000D490968490702D50221080008E00A49C1
:101BD0000968C90602D50321080001E004210800B4
:101BE000C0B270472301674504200240AB89EFCDA6
:101BF00010200240142002400C20024038B504009E
:101C00000425FFF7D5FF0500EDB2012D06D1002C0C
:101C100004D0FFF7CDFF0500641EF5E7002C01D1CD
:101C2000052005002800C0B232BD000001B400202C
:101C300000994FF40062B1FBF2F303FB1213002B87
:101C400003D0CA0A521C100001E0CA0A100001B0F9
:101C500070472DE9F04182B004000D001600270006
:101C600000955FF00408FFF737FF3420FFF79DFF72
:101C70000098B6B27119884211D2398889B2009899
:101C8000FFF76DFF38880099098880B2884201D03B
:101C9000002007E0BF1C0098801C0090E8E7FFF7D9
:101CA00026FF0120BDE8F68138B504240025002078
:101CB000009014480068012822DA12480068401C8D
:101CC00010490860FFF708FF3420FFF76EFF0E4849
:101CD000FFF7ACFF05000098A8420FD2E4B2042C35
:101CE0000CD100984FF40061084A01FB0020FFF777
:101CF00007FF04000098401C0090ECE7FFF7F7FE98
:101D000031BD00008C080020400D030000200008B9
:101D100080B5FFF7ECFE01BD10B50024FFF712FB04
:101D2000FFF7E0F9FFF7DFF910480068B0F57A7FB8
:101D300008DB00200D490860002801D1012002E0E5
:101D4000002000E000200028ECD0E4B2002C03D0FA
:101D50000520FFF730FB02E00520FFF75CFBE4B253
:101D6000002C01D10124DDE70024DBE7600800201E
:101D70000D2A2A2A2A2A2A2A2A2A2A2A2A2A2A2AE0
:101D80002A2A2A2A2A2A2A2A2A2A2A2A2A2A2A2AB3
:101D90002A2A2A2A2A2A2A2A2A2A2A2A2A2A2A2AA3
:101DA0002A2A2A2A2A2A2A2A2A2A0D0A0000000078
:101DB0002A2A2A2A2A2A2A2A2A2A2A2A2A2A2A2A83
:101DC0002A2A2A2A2A2A2A2A2A2A2A2A2A2A2A2A73
:101DD0002A2A2A2A2A2A2A2A2A2A2A2A2A2A2A2A63
:101DE0002A2A2A2A2A2A2A2A2A0D0A0010B507494D
:101DF00079441831064C7C44163404E00A68081D06
:101E0000511888470146A142F8D110BD08000000D2
:101E1000280000003FEEFFFF7C08000020000020AB
:101E2000000000007BE7FFFF200000001002000020
:101E3000000000200000000000F00BF8002801D096
:101E4000FFF7D4FF0020C046C046FFF765FF00F053
:101E500002F80120704700F001B80000074638463C
:101E600000F002F8FBE7000080B5C046C046024A19
:101E700011001820ABBEFBE726000200312EB8FC93
:101E8000D0C2D3A6D3C3C7F8B3CCD0F2A3BB0D0A3C
:101E9000000000000A0D206A756D702061707020CE
:101EA0006661696C21000000322ED4CBD0D0415045
:101EB00050B3CCD0F2A1A30D0A000000310D0AC727
:101EC000EBD1A1D4F1D2AAB7A2CBCDCEC4BCFE0037
:101ED000204A756D70546F417070300D0A0000001B
:101EE0004A756D70546F417070310D0A000000002A
:101EF000320D0AD4CBD0D0B3CCD0F22E2E2E00008F
:101F00000D0AD4CBD0D0B3CCD0F22E2E2E000000B0
:101F100001488047014800472D190008211F00088B
:101F2000C046C046C046C046FFF786FFC7EBD1A1FA
:101F3000D4F13A00FFF7FEBFFFF7FEBFFFF7FEBF89
:101F4000FFF7FEBFFFF7FEBFFFF7FEBFFFF7FEBFC5
:101F5000FFF7FEBFFFF7FEBFFFF7FEBFFFF7FEBFB5
:101F6000FFF7FEBFFFF7FEBFFFF7FEBFFFF7FEBFA5
:101F7000FFF7FEBFFFF7FEBFFFF7FEBFFFF7FEBF95
:101F8000FFF7FEBFFFF7FEBFFFF7FEBFFFF7FEBF85
:101F9000FFF7FEBFFFF7FEBFFFF7FEBFFFF7FEBF75
:101FA000FFF7FEBFFFF7FEBFFFF7FEBFFFF7FEBF65
:101FB000FFF7FEBFFFF7FEBFFFF7FEBFFFF7FEBF55
:101FC000FFF7FEBFFFF7FEBFFFF7FEBFFFF7FEBF45
:101FD000FFF7FEBFFFF7FEBFFFF7FEBFFFF7FEBF35
:101FE000FFF7FEBFFFF7FEBFFFF7FEBFFFF7FEBF25
:101FF000FFF7FEBFFFF7FEBFFFF7FEBFFFF7FEBF15
:10200000FFF7FEBFFFF7FEBFFFF7FEBFFFF7FEBF04
:10201000FFF7FEBFFFF7FEBFFFF7FEBFFFF7FEBFF4
:10202000FFF7FEBFFFF7FEBFFFF7FEBFFFF7FEBFE4
:10203000FFF7FEBFFFF7FEBFFFF7FEBF0000000087
:10204000010203040102030406070809200000201E
:0C20500000200008020406080100000047
:0400000508001F21AF
:00000001FF
